:100000000C9446000C945D000C945D000C945D0013
:100010000C945D000C945D000C945D000C945D00EC
:100020000C945D000C945D000C945D000C945D00DC
:100030000C945D000C945D000C945D000C945D00CC
:100040000C945D000C945D000C945D000C945D00BC
:100050000C945D000C945D000C945D000C945D00AC
:100060000C945D000C945D000C945D000C945D009C
:100070000C945D000C945D000C945D000C945D008C
:100080000C945D000C945D000C945D0011241FBE67
:10009000CFEFD0E1DEBFCDBF11E0A0E0B1E0E6E5FB
:1000A000F9E000E00BBF02C007900D92AE33B1073C
:1000B000D9F70E940D040C946A040C940000CF93AD
:1000C000C82F40E062E081E00E94AF028BB38F70E6
:1000D0008BBB8BB39C2F907F892B8BBB41E063E064
:1000E00081E00E94AF028FE99FE00197F1F700C025
:1000F000000040E063E081E00E94AF0240E062E087
:1001000081E00E94AF028BB38F708BBB8BB3C29523
:10011000C07FC82BCBBB41E063E081E00E94AF020F
:100120008FE99FE00197F1F700C0000040E063E035
:1001300081E0CF910C94AF0241E064E081E00E9445
:10014000F10141E065E081E00E94F10141E066E0FB
:1001500081E00E94F10141E067E081E00E94F1014D
:1001600041E062E081E00E94F10141E063E081E072
:100170000E94F1012FE389E191E0215080409040FD
:10018000E1F700C0000082E00E945F0088E20E9468
:100190005F0087EC90E00197F1F700C0000080E07D
:1001A0000E945F008FE00E945F0087EC90E0019763
:1001B000F1F700C0000080E00E945F0081E00E9433
:1001C0005F008FE19EE40197F1F700C0000080E03E
:1001D0000E945F0086E00E945F008FEC97E001972D
:1001E000F1F700C000000895823059F080E8860FD2
:1001F0000E945F008FEC97E00197F1F700C00000CC
:10020000089580EC860FF4CFCF93C82F41E062E0D1
:1002100081E00E94AF028BB38F708BBB8BB39C2F9E
:10022000907F892B8BBB41E063E081E00E94AF02AD
:100230008FE99FE00197F1F700C0000040E063E024
:1002400081E00E94AF0241E062E081E00E94AF02E3
:100250008BB38F708BBB8BB3C295C07FC82BCBBBCE
:1002600041E063E081E00E94AF028FE99FE00197E7
:10027000F1F700C0000040E063E081E0CF910C9412
:10028000AF02CF938230B9F080E80E945F008FEC1C
:1002900097E00197F1F700C00000C0E080E20E9403
:1002A0000401CF5FEC2FF0E0E050FF4F808181111F
:1002B000F6CFCF91089580ECE8CF0F931F93CF93A3
:1002C0008C01009771F0FC018081811551F0C0E034
:1002D0000E940401CF5FF801EC0FF11D80818111B4
:1002E000F7CFCF911F910F9108954F925F926F9228
:1002F0007F929F92AF92BF92CF92DF92EF92FF9246
:100300000F931F93CF93DF93CDB7DEB72A970FB626
:10031000F894DEBF0FBECDBF6B017C01C114D104C8
:10032000E104F10409F459C05CF4F094E094D09431
:10033000C094C11CD11CE11CF11C8DE20E9404017F
:100340008E010F5F1F4F5801912C9AE0492E512CBE
:10035000612C712CB601C7019201A3010E942004F7
:10036000605DF501608369017A01C114D104E10483
:10037000F10449F0FFEFAF1ABF0A93948AE0981294
:10038000E9CF89E0982E78019FEFE91AF90AE90C84
:10039000F11CF70182917F010E9404018FE39CE927
:1003A0000197F1F700C00000E016F10691F72A96D8
:1003B0000FB6F894DEBF0FBECDBFDF91CF911F9176
:1003C0000F91FF90EF90DF90CF90BF90AF909F90F4
:1003D0007F906F905F904F90089580E30E9404019A
:1003E000AFCF683028F4413020F48150873058F086
:1003F0000895F1F781508730D8F7E82FF0E0E459FD
:10040000FB4F0C943F04E82FF0E0ED58FB4F0C94A9
:100410003F042091610081E001C0880F6A95EAF7EE
:100420008095822380936100089522B181E001C00C
:10043000880F6A95EAF78095822382B9089521B3DF
:1004400081E001C0880F6A95EAF78095822381BB1D
:10045000089524B381E001C0880F6A95EAF780957A
:10046000822384BB089527B381E001C0880F6A9579
:10047000EAF78095822387BB08952AB381E001C003
:10048000880F6A95EAF7809582238ABB08952091A8
:10049000640081E001C0880F6A95EAF780958223A5
:1004A0008093640008958091610021E001C0220FD3
:1004B0006A95EAF7822B8093610008958AB321E060
:1004C00001C0220F6A95EAF7822B8ABB08958091BA
:1004D000640021E001C0220F6A95EAF7822B809325
:1004E0006400089582B121E001C0220F6A95EAF705
:1004F000822B82B9089581B321E001C0220F6A9551
:10050000EAF7822B81BB089584B321E001C0220F5A
:100510006A95EAF7822B84BB089587B321E001C076
:10052000220F6A95EAF7822B87BB089581508730A6
:1005300040F4E82FF0E0E658FB4F0C943F04609342
:10054000640008956093610008956ABB089567BBD5
:10055000089564BB089561BB089562B90895683039
:1005600028F4413020F48150873058F00895F1F795
:1005700081508730D8F7E82FF0E0EF57FB4F0C940D
:100580003F04E82FF0E0E857FB4F0C943F04209124
:10059000620081E001C0880F6A95EAF780958223A6
:1005A00080936200089523B181E001C0880F6A95AD
:1005B000EAF78095822383B9089522B381E001C0D0
:1005C000880F6A95EAF78095822382BB089525B348
:1005D00081E001C0880F6A95EAF78095822385BB88
:1005E000089528B381E001C0880F6A95EAF78095E5
:1005F000822388BB08952BB381E001C0880F6A95E0
:10060000EAF7809582238BBB08952091650081E0F5
:1006100001C0880F6A95EAF7809582238093650070
:1006200008958091620021E001C0220F6A95EAF7E7
:10063000822B8093620008958BB321E001C0220FCA
:100640006A95EAF7822B8BBB08958091650021E0C3
:1006500001C0220F6A95EAF7822B80936500089506
:1006600083B121E001C0220F6A95EAF7822B83B99A
:10067000089582B321E001C0220F6A95EAF7822B28
:1006800082BB089585B321E001C0220F6A95EAF785
:10069000822B85BB089588B321E001C0220F6A95A3
:1006A000EAF7822B88BB08958150873040F4E82F09
:1006B000F0E0E157FB4F0C943F0460936500089510
:1006C0006093620008956BBB089568BB089565BB95
:1006D000089562BB089563B90895683018F4815095
:1006E000873008F00895E82FF0E0EA56FB4F0C94AD
:1006F0003F048091620021E001C0220F6A95EAF771
:10070000822780936200089583B121E001C0220F07
:100710006A95EAF7822783B9089582B321E001C080
:10072000220F6A95EAF7822782BB089585B321E0FC
:1007300001C0220F6A95EAF7822785BB089588B326
:1007400021E001C0220F6A95EAF7822788BB08954D
:100750008BB321E001C0220F6A95EAF782278BBB99
:1007600008958091650021E001C0220F6A95EAF7A3
:1007700082278093650008954115510529F068305E
:1007800018F48150873008F00895E82FF0E0E35620
:10079000FB4F0C943F0480B190E002C09595879583
:1007A0006A95E2F78170FA018083089581B1F4CFF0
:1007B00080B3F2CF83B3F0CF86B3EECF89B3ECCF63
:1007C00080916300E9CF6115710519F08150873080
:1007D00008F00895E82FF0E0EC55FB4F0C943F042F
:1007E00080B1FB018083089581B1FB01808308956E
:1007F00080B3FB018083089583B3FB018083089558
:1008000086B3FB018083089589B3FB01808308953B
:1008100080916300FB01808308950E949C0060E04A
:1008200081E00E94F40081E191E00E945D0160E0BE
:1008300082E00E94F4008BE291E00E945D01FFCF14
:10084000052E97FB1EF400940E94370457FD07D035
:100850000E94480407FC03D04EF40C9437045095D2
:100860004095309521953F4F4F4F5F4F089590959C
:100870008095709561957F4F8F4F9F4F0895EE0F34
:10088000FF1F0024001C0BBE0790F691E02D099479
:10089000A1E21A2EAA1BBB1BFD010DC0AA1FBB1F84
:1008A000EE1FFF1FA217B307E407F50720F0A21BF6
:1008B000B30BE40BF50B661F771F881F991F1A9463
:1008C00069F760957095809590959B01AC01BD018D
:1008D000CF010895F894FFCF5E028D0284027B025F
:1008E0007202530267023D02330229021F021502FF
:1008F00009024702A502A702A902AB02AD02A202A9
:100900009F021C034B0342033903300311032503E9
:10091000FB02F102E702DD02D302C7020503630313
:100920006503670369036B0360035D03A8039F030B
:1009300096038D0384037903B103DE03DC03DA033A
:10094000D803D603CB03E00304040004FC03F8033C
:06095000F403F0030804AB
:100956002020202020202020202020202020202091
:100966000057656C636F6D6520746F207468652031
:10097600776F726C6420426F792100706C73205718
:0E0986006F726B205361336564203A2D290097
:00000001FF
